{
  "_format": "hh-sol-artifact-1",
  "contractName": "Veluxora",
  "sourceName": "contracts/Veluxora.sol",
  "abi": [
    {
      "inputs": [],
      "stateMutability": "nonpayable",
      "type": "constructor"
    },
    {
      "inputs": [
        {
          "internalType": "address",
          "name": "sender",
          "type": "address"
        },
        {
          "internalType": "uint256",
          "name": "tokenId",
          "type": "uint256"
        },
        {
          "internalType": "address",
          "name": "owner",
          "type": "address"
        }
      ],
      "name": "ERC721IncorrectOwner",
      "type": "error"
    },
    {
      "inputs": [
        {
          "internalType": "address",
          "name": "operator",
          "type": "address"
        },
        {
          "internalType": "uint256",
          "name": "tokenId",
          "type": "uint256"
        }
      ],
      "name": "ERC721InsufficientApproval",
      "type": "error"
    },
    {
      "inputs": [
        {
          "internalType": "address",
          "name": "approver",
          "type": "address"
        }
      ],
      "name": "ERC721InvalidApprover",
      "type": "error"
    },
    {
      "inputs": [
        {
          "internalType": "address",
          "name": "operator",
          "type": "address"
        }
      ],
      "name": "ERC721InvalidOperator",
      "type": "error"
    },
    {
      "inputs": [
        {
          "internalType": "address",
          "name": "owner",
          "type": "address"
        }
      ],
      "name": "ERC721InvalidOwner",
      "type": "error"
    },
    {
      "inputs": [
        {
          "internalType": "address",
          "name": "receiver",
          "type": "address"
        }
      ],
      "name": "ERC721InvalidReceiver",
      "type": "error"
    },
    {
      "inputs": [
        {
          "internalType": "address",
          "name": "sender",
          "type": "address"
        }
      ],
      "name": "ERC721InvalidSender",
      "type": "error"
    },
    {
      "inputs": [
        {
          "internalType": "uint256",
          "name": "tokenId",
          "type": "uint256"
        }
      ],
      "name": "ERC721NonexistentToken",
      "type": "error"
    },
    {
      "inputs": [],
      "name": "ReentrancyGuardReentrantCall",
      "type": "error"
    },
    {
      "anonymous": false,
      "inputs": [
        {
          "indexed": true,
          "internalType": "address",
          "name": "owner",
          "type": "address"
        },
        {
          "indexed": true,
          "internalType": "address",
          "name": "approved",
          "type": "address"
        },
        {
          "indexed": true,
          "internalType": "uint256",
          "name": "tokenId",
          "type": "uint256"
        }
      ],
      "name": "Approval",
      "type": "event"
    },
    {
      "anonymous": false,
      "inputs": [
        {
          "indexed": true,
          "internalType": "address",
          "name": "owner",
          "type": "address"
        },
        {
          "indexed": true,
          "internalType": "address",
          "name": "operator",
          "type": "address"
        },
        {
          "indexed": false,
          "internalType": "bool",
          "name": "approved",
          "type": "bool"
        }
      ],
      "name": "ApprovalForAll",
      "type": "event"
    },
    {
      "anonymous": false,
      "inputs": [
        {
          "indexed": false,
          "internalType": "string",
          "name": "auctionId",
          "type": "string"
        },
        {
          "indexed": false,
          "internalType": "string",
          "name": "message",
          "type": "string"
        }
      ],
      "name": "AuctionCanceled",
      "type": "event"
    },
    {
      "anonymous": false,
      "inputs": [
        {
          "indexed": false,
          "internalType": "string",
          "name": "auctionId",
          "type": "string"
        },
        {
          "indexed": false,
          "internalType": "string",
          "name": "message",
          "type": "string"
        }
      ],
      "name": "AuctionUpdated",
      "type": "event"
    },
    {
      "anonymous": false,
      "inputs": [
        {
          "indexed": false,
          "internalType": "uint256",
          "name": "_fromTokenId",
          "type": "uint256"
        },
        {
          "indexed": false,
          "internalType": "uint256",
          "name": "_toTokenId",
          "type": "uint256"
        }
      ],
      "name": "BatchMetadataUpdate",
      "type": "event"
    },
    {
      "anonymous": false,
      "inputs": [
        {
          "indexed": true,
          "internalType": "address",
          "name": "bidder",
          "type": "address"
        },
        {
          "indexed": true,
          "internalType": "string",
          "name": "auctionId",
          "type": "string"
        },
        {
          "indexed": false,
          "internalType": "uint256",
          "name": "amount",
          "type": "uint256"
        },
        {
          "indexed": false,
          "internalType": "string",
          "name": "message",
          "type": "string"
        }
      ],
      "name": "DepositReturned",
      "type": "event"
    },
    {
      "anonymous": false,
      "inputs": [
        {
          "indexed": false,
          "internalType": "uint256",
          "name": "_tokenId",
          "type": "uint256"
        }
      ],
      "name": "MetadataUpdate",
      "type": "event"
    },
    {
      "anonymous": false,
      "inputs": [
        {
          "indexed": true,
          "internalType": "address",
          "name": "winner",
          "type": "address"
        },
        {
          "indexed": false,
          "internalType": "string",
          "name": "auctionId",
          "type": "string"
        },
        {
          "indexed": false,
          "internalType": "uint256",
          "name": "tokenId",
          "type": "uint256"
        },
        {
          "indexed": false,
          "internalType": "string",
          "name": "message",
          "type": "string"
        }
      ],
      "name": "NFTClaimedByWinner",
      "type": "event"
    },
    {
      "anonymous": false,
      "inputs": [
        {
          "indexed": true,
          "internalType": "address",
          "name": "creator",
          "type": "address"
        },
        {
          "indexed": false,
          "internalType": "string",
          "name": "auctionId",
          "type": "string"
        },
        {
          "indexed": false,
          "internalType": "string",
          "name": "message",
          "type": "string"
        }
      ],
      "name": "NewAuctionCreated",
      "type": "event"
    },
    {
      "anonymous": false,
      "inputs": [
        {
          "indexed": true,
          "internalType": "address",
          "name": "bidder",
          "type": "address"
        },
        {
          "indexed": false,
          "internalType": "string",
          "name": "auctionId",
          "type": "string"
        },
        {
          "indexed": false,
          "internalType": "uint256",
          "name": "amount",
          "type": "uint256"
        },
        {
          "indexed": false,
          "internalType": "string",
          "name": "message",
          "type": "string"
        }
      ],
      "name": "NewBidAdded",
      "type": "event"
    },
    {
      "anonymous": false,
      "inputs": [
        {
          "indexed": false,
          "internalType": "address",
          "name": "user",
          "type": "address"
        },
        {
          "indexed": false,
          "internalType": "string",
          "name": "message",
          "type": "string"
        }
      ],
      "name": "NewUserRegistered",
      "type": "event"
    },
    {
      "anonymous": false,
      "inputs": [
        {
          "indexed": true,
          "internalType": "address",
          "name": "from",
          "type": "address"
        },
        {
          "indexed": true,
          "internalType": "address",
          "name": "to",
          "type": "address"
        },
        {
          "indexed": true,
          "internalType": "uint256",
          "name": "tokenId",
          "type": "uint256"
        }
      ],
      "name": "Transfer",
      "type": "event"
    },
    {
      "anonymous": false,
      "inputs": [
        {
          "indexed": true,
          "internalType": "address",
          "name": "creator",
          "type": "address"
        },
        {
          "indexed": false,
          "internalType": "string",
          "name": "auctionId",
          "type": "string"
        },
        {
          "indexed": false,
          "internalType": "uint256",
          "name": "amount",
          "type": "uint256"
        },
        {
          "indexed": false,
          "internalType": "string",
          "name": "message",
          "type": "string"
        }
      ],
      "name": "WinningETHTransferred",
      "type": "event"
    },
    {
      "stateMutability": "payable",
      "type": "fallback"
    },
    {
      "inputs": [
        {
          "internalType": "address",
          "name": "to",
          "type": "address"
        },
        {
          "internalType": "uint256",
          "name": "tokenId",
          "type": "uint256"
        }
      ],
      "name": "approve",
      "outputs": [],
      "stateMutability": "nonpayable",
      "type": "function"
    },
    {
      "inputs": [
        {
          "internalType": "string",
          "name": "",
          "type": "string"
        }
      ],
      "name": "auctionExist",
      "outputs": [
        {
          "internalType": "bool",
          "name": "",
          "type": "bool"
        }
      ],
      "stateMutability": "view",
      "type": "function"
    },
    {
      "inputs": [
        {
          "internalType": "string",
          "name": "",
          "type": "string"
        }
      ],
      "name": "auctions",
      "outputs": [
        {
          "internalType": "address",
          "name": "creator",
          "type": "address"
        },
        {
          "internalType": "uint256",
          "name": "tokenId",
          "type": "uint256"
        },
        {
          "internalType": "uint256",
          "name": "minBid",
          "type": "uint256"
        },
        {
          "internalType": "uint256",
          "name": "highestBid",
          "type": "uint256"
        },
        {
          "internalType": "address",
          "name": "highestBidder",
          "type": "address"
        },
        {
          "internalType": "uint256",
          "name": "startTime",
          "type": "uint256"
        },
        {
          "internalType": "uint256",
          "name": "endTime",
          "type": "uint256"
        },
        {
          "internalType": "bool",
          "name": "claimed",
          "type": "bool"
        },
        {
          "internalType": "bool",
          "name": "canceled",
          "type": "bool"
        }
      ],
      "stateMutability": "view",
      "type": "function"
    },
    {
      "inputs": [
        {
          "internalType": "address",
          "name": "owner",
          "type": "address"
        }
      ],
      "name": "balanceOf",
      "outputs": [
        {
          "internalType": "uint256",
          "name": "",
          "type": "uint256"
        }
      ],
      "stateMutability": "view",
      "type": "function"
    },
    {
      "inputs": [
        {
          "internalType": "string",
          "name": "_id",
          "type": "string"
        }
      ],
      "name": "bid",
      "outputs": [],
      "stateMutability": "payable",
      "type": "function"
    },
    {
      "inputs": [
        {
          "internalType": "string",
          "name": "",
          "type": "string"
        },
        {
          "internalType": "uint256",
          "name": "",
          "type": "uint256"
        }
      ],
      "name": "bids",
      "outputs": [
        {
          "internalType": "address",
          "name": "bidder",
          "type": "address"
        },
        {
          "internalType": "uint256",
          "name": "amount",
          "type": "uint256"
        }
      ],
      "stateMutability": "view",
      "type": "function"
    },
    {
      "inputs": [
        {
          "internalType": "string",
          "name": "_id",
          "type": "string"
        }
      ],
      "name": "cancelAuction",
      "outputs": [],
      "stateMutability": "nonpayable",
      "type": "function"
    },
    {
      "inputs": [
        {
          "internalType": "string",
          "name": "_id",
          "type": "string"
        }
      ],
      "name": "claimETHForAuctionCreator",
      "outputs": [],
      "stateMutability": "nonpayable",
      "type": "function"
    },
    {
      "inputs": [
        {
          "internalType": "string",
          "name": "_id",
          "type": "string"
        }
      ],
      "name": "claimNFTForAuctionWinner",
      "outputs": [],
      "stateMutability": "nonpayable",
      "type": "function"
    },
    {
      "inputs": [
        {
          "internalType": "string",
          "name": "_id",
          "type": "string"
        },
        {
          "internalType": "uint256",
          "name": "_minBid",
          "type": "uint256"
        },
        {
          "internalType": "uint256",
          "name": "_startTime",
          "type": "uint256"
        },
        {
          "internalType": "uint256",
          "name": "_endTime",
          "type": "uint256"
        },
        {
          "internalType": "uint256",
          "name": "_tokenId",
          "type": "uint256"
        },
        {
          "internalType": "string",
          "name": "_tokenUri",
          "type": "string"
        }
      ],
      "name": "createAuction",
      "outputs": [],
      "stateMutability": "nonpayable",
      "type": "function"
    },
    {
      "inputs": [
        {
          "internalType": "uint256",
          "name": "tokenId",
          "type": "uint256"
        }
      ],
      "name": "getApproved",
      "outputs": [
        {
          "internalType": "address",
          "name": "",
          "type": "address"
        }
      ],
      "stateMutability": "view",
      "type": "function"
    },
    {
      "inputs": [
        {
          "internalType": "string",
          "name": "_id",
          "type": "string"
        }
      ],
      "name": "getAuctionDetail",
      "outputs": [
        {
          "components": [
            {
              "internalType": "address",
              "name": "creator",
              "type": "address"
            },
            {
              "internalType": "uint256",
              "name": "tokenId",
              "type": "uint256"
            },
            {
              "internalType": "uint256",
              "name": "minBid",
              "type": "uint256"
            },
            {
              "internalType": "uint256",
              "name": "highestBid",
              "type": "uint256"
            },
            {
              "internalType": "address",
              "name": "highestBidder",
              "type": "address"
            },
            {
              "internalType": "uint256",
              "name": "startTime",
              "type": "uint256"
            },
            {
              "internalType": "uint256",
              "name": "endTime",
              "type": "uint256"
            },
            {
              "internalType": "bool",
              "name": "claimed",
              "type": "bool"
            },
            {
              "internalType": "bool",
              "name": "canceled",
              "type": "bool"
            }
          ],
          "internalType": "struct Veluxora.Auction",
          "name": "",
          "type": "tuple"
        }
      ],
      "stateMutability": "view",
      "type": "function"
    },
    {
      "inputs": [
        {
          "internalType": "string",
          "name": "_id",
          "type": "string"
        }
      ],
      "name": "getBidHistory",
      "outputs": [
        {
          "components": [
            {
              "internalType": "address",
              "name": "bidder",
              "type": "address"
            },
            {
              "internalType": "uint256",
              "name": "amount",
              "type": "uint256"
            }
          ],
          "internalType": "struct Veluxora.Bid[]",
          "name": "",
          "type": "tuple[]"
        }
      ],
      "stateMutability": "view",
      "type": "function"
    },
    {
      "inputs": [
        {
          "internalType": "address",
          "name": "owner",
          "type": "address"
        },
        {
          "internalType": "address",
          "name": "operator",
          "type": "address"
        }
      ],
      "name": "isApprovedForAll",
      "outputs": [
        {
          "internalType": "bool",
          "name": "",
          "type": "bool"
        }
      ],
      "stateMutability": "view",
      "type": "function"
    },
    {
      "inputs": [],
      "name": "name",
      "outputs": [
        {
          "internalType": "string",
          "name": "",
          "type": "string"
        }
      ],
      "stateMutability": "view",
      "type": "function"
    },
    {
      "inputs": [
        {
          "internalType": "address",
          "name": "",
          "type": "address"
        },
        {
          "internalType": "address",
          "name": "",
          "type": "address"
        },
        {
          "internalType": "uint256",
          "name": "",
          "type": "uint256"
        },
        {
          "internalType": "bytes",
          "name": "",
          "type": "bytes"
        }
      ],
      "name": "onERC721Received",
      "outputs": [
        {
          "internalType": "bytes4",
          "name": "",
          "type": "bytes4"
        }
      ],
      "stateMutability": "nonpayable",
      "type": "function"
    },
    {
      "inputs": [
        {
          "internalType": "uint256",
          "name": "tokenId",
          "type": "uint256"
        }
      ],
      "name": "ownerOf",
      "outputs": [
        {
          "internalType": "address",
          "name": "",
          "type": "address"
        }
      ],
      "stateMutability": "view",
      "type": "function"
    },
    {
      "inputs": [],
      "name": "registerUser",
      "outputs": [],
      "stateMutability": "nonpayable",
      "type": "function"
    },
    {
      "inputs": [
        {
          "internalType": "address",
          "name": "",
          "type": "address"
        }
      ],
      "name": "registeredUsers",
      "outputs": [
        {
          "internalType": "bool",
          "name": "",
          "type": "bool"
        }
      ],
      "stateMutability": "view",
      "type": "function"
    },
    {
      "inputs": [
        {
          "internalType": "address",
          "name": "from",
          "type": "address"
        },
        {
          "internalType": "address",
          "name": "to",
          "type": "address"
        },
        {
          "internalType": "uint256",
          "name": "tokenId",
          "type": "uint256"
        }
      ],
      "name": "safeTransferFrom",
      "outputs": [],
      "stateMutability": "nonpayable",
      "type": "function"
    },
    {
      "inputs": [
        {
          "internalType": "address",
          "name": "from",
          "type": "address"
        },
        {
          "internalType": "address",
          "name": "to",
          "type": "address"
        },
        {
          "internalType": "uint256",
          "name": "tokenId",
          "type": "uint256"
        },
        {
          "internalType": "bytes",
          "name": "data",
          "type": "bytes"
        }
      ],
      "name": "safeTransferFrom",
      "outputs": [],
      "stateMutability": "nonpayable",
      "type": "function"
    },
    {
      "inputs": [
        {
          "internalType": "address",
          "name": "operator",
          "type": "address"
        },
        {
          "internalType": "bool",
          "name": "approved",
          "type": "bool"
        }
      ],
      "name": "setApprovalForAll",
      "outputs": [],
      "stateMutability": "nonpayable",
      "type": "function"
    },
    {
      "inputs": [
        {
          "internalType": "uint256",
          "name": "_tokenId",
          "type": "uint256"
        }
      ],
      "name": "showtokenURI",
      "outputs": [
        {
          "internalType": "string",
          "name": "",
          "type": "string"
        }
      ],
      "stateMutability": "view",
      "type": "function"
    },
    {
      "inputs": [
        {
          "internalType": "bytes4",
          "name": "interfaceId",
          "type": "bytes4"
        }
      ],
      "name": "supportsInterface",
      "outputs": [
        {
          "internalType": "bool",
          "name": "",
          "type": "bool"
        }
      ],
      "stateMutability": "view",
      "type": "function"
    },
    {
      "inputs": [],
      "name": "symbol",
      "outputs": [
        {
          "internalType": "string",
          "name": "",
          "type": "string"
        }
      ],
      "stateMutability": "view",
      "type": "function"
    },
    {
      "inputs": [
        {
          "internalType": "uint256",
          "name": "",
          "type": "uint256"
        }
      ],
      "name": "tokenExist",
      "outputs": [
        {
          "internalType": "bool",
          "name": "",
          "type": "bool"
        }
      ],
      "stateMutability": "view",
      "type": "function"
    },
    {
      "inputs": [
        {
          "internalType": "uint256",
          "name": "tokenId",
          "type": "uint256"
        }
      ],
      "name": "tokenURI",
      "outputs": [
        {
          "internalType": "string",
          "name": "",
          "type": "string"
        }
      ],
      "stateMutability": "view",
      "type": "function"
    },
    {
      "inputs": [
        {
          "internalType": "address",
          "name": "from",
          "type": "address"
        },
        {
          "internalType": "address",
          "name": "to",
          "type": "address"
        },
        {
          "internalType": "uint256",
          "name": "tokenId",
          "type": "uint256"
        }
      ],
      "name": "transferFrom",
      "outputs": [],
      "stateMutability": "nonpayable",
      "type": "function"
    },
    {
      "inputs": [
        {
          "internalType": "string",
          "name": "_id",
          "type": "string"
        },
        {
          "internalType": "uint256",
          "name": "_newMinBid",
          "type": "uint256"
        },
        {
          "internalType": "uint256",
          "name": "_newStartTime",
          "type": "uint256"
        },
        {
          "internalType": "uint256",
          "name": "_newEndTime",
          "type": "uint256"
        },
        {
          "internalType": "uint256",
          "name": "_tokenId",
          "type": "uint256"
        },
        {
          "internalType": "string",
          "name": "_tokenUri",
          "type": "string"
        }
      ],
      "name": "updateAuction",
      "outputs": [],
      "stateMutability": "nonpayable",
      "type": "function"
    },
    {
      "stateMutability": "payable",
      "type": "receive"
    }
  ],
  "bytecode": "0x608060405234801561001057600080fd5b506040518060400160405280600881526020017f56656c75786f72610000000000000000000000000000000000000000000000008152506040518060400160405280600381526020017f564c580000000000000000000000000000000000000000000000000000000000815250816000908161008c91906102fc565b50806001908161009c91906102fc565b50505060016007819055506103ce565b600081519050919050565b7f4e487b7100000000000000000000000000000000000000000000000000000000600052604160045260246000fd5b7f4e487b7100000000000000000000000000000000000000000000000000000000600052602260045260246000fd5b6000600282049050600182168061012d57607f821691505b6020821081036101405761013f6100e6565b5b50919050565b60008190508160005260206000209050919050565b60006020601f8301049050919050565b600082821b905092915050565b6000600883026101a87fffffffffffffffffffffffffffffffffffffffffffffffffffffffffffffffff8261016b565b6101b2868361016b565b95508019841693508086168417925050509392505050565b6000819050919050565b6000819050919050565b60006101f96101f46101ef846101ca565b6101d4565b6101ca565b9050919050565b6000819050919050565b610213836101de565b61022761021f82610200565b848454610178565b825550505050565b600090565b61023c61022f565b61024781848461020a565b505050565b5b8181101561026b57610260600082610234565b60018101905061024d565b5050565b601f8211156102b05761028181610146565b61028a8461015b565b81016020851015610299578190505b6102ad6102a58561015b565b83018261024c565b50505b505050565b600082821c905092915050565b60006102d3600019846008026102b5565b1980831691505092915050565b60006102ec83836102c2565b9150826002028217905092915050565b610305826100ac565b67ffffffffffffffff81111561031e5761031d6100b7565b5b6103288254610115565b61033382828561026f565b600060209050601f8311600181146103665760008415610354578287015190505b61035e85826102e0565b8655506103c6565b601f19841661037486610146565b60005b8281101561039c57848901518255600182019150602085019450602081019050610377565b868310156103b957848901516103b5601f8916826102c2565b8355505b6001600288020188555050505b505050505050565b615949806103dd6000396000f3fe6080604052600436106101c65760003560e01c806364920dea116100f7578063ac3c50ac11610095578063c87b56dd11610064578063c87b56dd146106d3578063cc0c523614610710578063e985e9c51461074d578063eb3f81cf1461078a576101cd565b8063ac3c50ac14610613578063b60e7a3b1461063c578063b76b161814610665578063b88d4fde146106aa576101cd565b8063896736db116100d1578063896736db1461054557806395d89b4114610582578063a0903a4c146105ad578063a22cb465146105ea576101cd565b806364920dea146104c357806370a08231146104ec5780637aef951c14610529576101cd565b806323b872dd1161016457806342842e0e1161013e57806342842e0e1461041d5780634d3820eb146104465780635b3529df1461045d5780636352211e14610486576101cd565b806323b872dd1461038d5780633438dff9146103b65780634165728d146103df576101cd565b8063095ea7b3116101a0578063095ea7b3146102ad5780630e50cee5146102d6578063150b7a02146103135780631f3e202014610350576101cd565b806301ffc9a71461020857806306fdde0314610245578063081812fc14610270576101cd565b366101cd57005b6040517f08c379a00000000000000000000000000000000000000000000000000000000081526004016101ff90613c23565b60405180910390fd5b34801561021457600080fd5b5061022f600480360381019061022a9190613caf565b6107c7565b60405161023c9190613cf7565b60405180910390f35b34801561025157600080fd5b5061025a610828565b6040516102679190613d91565b60405180910390f35b34801561027c57600080fd5b5061029760048036038101906102929190613de9565b6108ba565b6040516102a49190613e57565b60405180910390f35b3480156102b957600080fd5b506102d460048036038101906102cf9190613e9e565b6108d6565b005b3480156102e257600080fd5b506102fd60048036038101906102f89190613ede565b6108ec565b60405161030a9190613cf7565b60405180910390f35b34801561031f57600080fd5b5061033a60048036038101906103359190614040565b61090c565b60405161034791906140d2565b60405180910390f35b34801561035c57600080fd5b5061037760048036038101906103729190613de9565b610920565b6040516103849190613d91565b60405180910390f35b34801561039957600080fd5b506103b460048036038101906103af91906140ed565b610932565b005b3480156103c257600080fd5b506103dd60048036038101906103d891906141e1565b610a34565b005b3480156103eb57600080fd5b50610406600480360381019061040191906142a6565b610dcf565b604051610414929190614311565b60405180910390f35b34801561042957600080fd5b50610444600480360381019061043f91906140ed565b610e46565b005b34801561045257600080fd5b5061045b610e66565b005b34801561046957600080fd5b50610484600480360381019061047f91906141e1565b610f84565b005b34801561049257600080fd5b506104ad60048036038101906104a89190613de9565b61139c565b6040516104ba9190613e57565b60405180910390f35b3480156104cf57600080fd5b506104ea60048036038101906104e5919061433a565b6113ae565b005b3480156104f857600080fd5b50610513600480360381019061050e9190613ede565b611774565b6040516105209190614383565b60405180910390f35b610543600480360381019061053e919061433a565b61182e565b005b34801561055157600080fd5b5061056c6004803603810190610567919061433a565b611e53565b6040516105799190613cf7565b60405180910390f35b34801561058e57600080fd5b50610597611e89565b6040516105a49190613d91565b60405180910390f35b3480156105b957600080fd5b506105d460048036038101906105cf919061433a565b611f1b565b6040516105e1919061449a565b60405180910390f35b3480156105f657600080fd5b50610611600480360381019061060c91906144e8565b611ff8565b005b34801561061f57600080fd5b5061063a6004803603810190610635919061433a565b61200e565b005b34801561064857600080fd5b50610663600480360381019061065e919061433a565b6122b2565b005b34801561067157600080fd5b5061068c6004803603810190610687919061433a565b612555565b6040516106a199989796959493929190614528565b60405180910390f35b3480156106b657600080fd5b506106d160048036038101906106cc9190614040565b612613565b005b3480156106df57600080fd5b506106fa60048036038101906106f59190613de9565b612638565b6040516107079190613d91565b60405180910390f35b34801561071c57600080fd5b5061073760048036038101906107329190613de9565b61274b565b6040516107449190613cf7565b60405180910390f35b34801561075957600080fd5b50610774600480360381019061076f91906145b5565b61276b565b6040516107819190613cf7565b60405180910390f35b34801561079657600080fd5b506107b160048036038101906107ac919061433a565b6127ff565b6040516107be91906146bb565b60405180910390f35b6000634906490660e01b7bffffffffffffffffffffffffffffffffffffffffffffffffffffffff1916827bffffffffffffffffffffffffffffffffffffffffffffffffffffffff1916148061082157506108208261294c565b5b9050919050565b60606000805461083790614706565b80601f016020809104026020016040519081016040528092919081815260200182805461086390614706565b80156108b05780601f10610885576101008083540402835291602001916108b0565b820191906000526020600020905b81548152906001019060200180831161089357829003601f168201915b5050505050905090565b60006108c582612a2e565b506108cf82612ab6565b9050919050565b6108e882826108e3612af3565b612afb565b5050565b600a6020528060005260406000206000915054906101000a900460ff1681565b600063150b7a0260e01b9050949350505050565b606061092b82612638565b9050919050565b600073ffffffffffffffffffffffffffffffffffffffff168273ffffffffffffffffffffffffffffffffffffffff16036109a45760006040517f64a0ae9200000000000000000000000000000000000000000000000000000000815260040161099b9190613e57565b60405180910390fd5b60006109b883836109b3612af3565b612b0d565b90508373ffffffffffffffffffffffffffffffffffffffff168173ffffffffffffffffffffffffffffffffffffffff1614610a2e578382826040517f64283d7b000000000000000000000000000000000000000000000000000000008152600401610a2593929190614737565b60405180910390fd5b50505050565b85600c81604051610a4591906147aa565b908152602001604051809103902060009054906101000a900460ff16610aa0576040517f08c379a0000000000000000000000000000000000000000000000000000000008152600401610a979061480d565b60405180910390fd5b86600881604051610ab191906147aa565b908152602001604051809103902060000160009054906101000a900473ffffffffffffffffffffffffffffffffffffffff1673ffffffffffffffffffffffffffffffffffffffff163373ffffffffffffffffffffffffffffffffffffffff1614610b50576040517f08c379a0000000000000000000000000000000000000000000000000000000008152600401610b479061489f565b60405180910390fd5b87600881604051610b6191906147aa565b9081526020016040518091039020600501544210610bb4576040517f08c379a0000000000000000000000000000000000000000000000000000000008152600401610bab9061490b565b60405180910390fd5b88600881604051610bc591906147aa565b908152602001604051809103902060070160019054906101000a900460ff1615610c24576040517f08c379a0000000000000000000000000000000000000000000000000000000008152600401610c1b90614977565b60405180910390fd5b8860008111610c68576040517f08c379a0000000000000000000000000000000000000000000000000000000008152600401610c5f90614a09565b60405180910390fd5b8888808210610cac576040517f08c379a0000000000000000000000000000000000000000000000000000000008152600401610ca390614a9b565b60405180910390fd5b610cb4612d27565b610cdf60088e604051610cc791906147aa565b90815260200160405180910390206001015433612d6d565b610ce98989612d7c565b8b60088e604051610cfa91906147aa565b9081526020016040518091039020600201819055508a60088e604051610d2091906147aa565b9081526020016040518091039020600501819055508960088e604051610d4691906147aa565b9081526020016040518091039020600601819055508860088e604051610d6c91906147aa565b9081526020016040518091039020600101819055507fd8f64414eab3d8d4ac259e9fa80c0eb9b979e2cffc8f1137238c4d221a43089e8d604051610db09190614b07565b60405180910390a1610dc0612d94565b50505050505050505050505050565b6009828051602081018201805184825260208301602085012081835280955050505050508181548110610e0157600080fd5b9060005260206000209060020201600091509150508060000160009054906101000a900473ffffffffffffffffffffffffffffffffffffffff16908060010154905082565b610e6183838360405180602001604052806000815250612613565b505050565b600a60003373ffffffffffffffffffffffffffffffffffffffff1673ffffffffffffffffffffffffffffffffffffffff16815260200190815260200160002060009054906101000a900460ff1615610ef3576040517f08c379a0000000000000000000000000000000000000000000000000000000008152600401610eea90614b88565b60405180910390fd5b6001600a60003373ffffffffffffffffffffffffffffffffffffffff1673ffffffffffffffffffffffffffffffffffffffff16815260200190815260200160002060006101000a81548160ff0219169083151502179055507f1d2b3529f3edbf84c2fbf46a16fa81880bd170f19142f18267f113903389a6dc33604051610f7a9190614bf4565b60405180910390a1565b600a60003373ffffffffffffffffffffffffffffffffffffffff1673ffffffffffffffffffffffffffffffffffffffff16815260200190815260200160002060009054906101000a900460ff16611010576040517f08c379a000000000000000000000000000000000000000000000000000000000815260040161100790614c6e565b60405180910390fd5b81600b600082815260200190815260200160002060009054906101000a900460ff1615611072576040517f08c379a000000000000000000000000000000000000000000000000000000000815260040161106990614cda565b60405180910390fd5b85600081116110b6576040517f08c379a00000000000000000000000000000000000000000000000000000000081526004016110ad90614a09565b60405180910390fd5b85428110156110fa576040517f08c379a00000000000000000000000000000000000000000000000000000000081526004016110f190614d6c565b60405180910390fd5b868681811161113e576040517f08c379a000000000000000000000000000000000000000000000000000000000815260040161113590614dfe565b60405180910390fd5b6111488787612d7c565b6001600b600089815260200190815260200160002060006101000a81548160ff0219169083151502179055506040518061012001604052803373ffffffffffffffffffffffffffffffffffffffff1681526020018881526020018b815260200160008152602001600073ffffffffffffffffffffffffffffffffffffffff1681526020018a81526020018981526020016000151581526020016000151581525060088c6040516111f891906147aa565b908152602001604051809103902060008201518160000160006101000a81548173ffffffffffffffffffffffffffffffffffffffff021916908373ffffffffffffffffffffffffffffffffffffffff16021790555060208201518160010155604082015181600201556060820151816003015560808201518160040160006101000a81548173ffffffffffffffffffffffffffffffffffffffff021916908373ffffffffffffffffffffffffffffffffffffffff16021790555060a0820151816005015560c0820151816006015560e08201518160070160006101000a81548160ff0219169083151502179055506101008201518160070160016101000a81548160ff0219169083151502179055509050506001600c8c60405161131c91906147aa565b908152602001604051809103902060006101000a81548160ff0219169083151502179055503373ffffffffffffffffffffffffffffffffffffffff167f3b692be43c6e7c963ad68bf7881dc985992d4c6babaef3c462f99950a3b8ee728c6040516113879190614e6a565b60405180910390a25050505050505050505050565b60006113a782612a2e565b9050919050565b80600c816040516113bf91906147aa565b908152602001604051809103902060009054906101000a900460ff1661141a576040517f08c379a00000000000000000000000000000000000000000000000000000000081526004016114119061480d565b60405180910390fd5b8160088160405161142b91906147aa565b908152602001604051809103902060000160009054906101000a900473ffffffffffffffffffffffffffffffffffffffff1673ffffffffffffffffffffffffffffffffffffffff163373ffffffffffffffffffffffffffffffffffffffff16146114ca576040517f08c379a00000000000000000000000000000000000000000000000000000000081526004016114c19061489f565b60405180910390fd5b826008816040516114db91906147aa565b90815260200160405180910390206006015442101561152f576040517f08c379a000000000000000000000000000000000000000000000000000000000815260040161152690614eeb565b60405180910390fd5b8360088160405161154091906147aa565b908152602001604051809103902060070160009054906101000a900460ff161561159f576040517f08c379a000000000000000000000000000000000000000000000000000000000815260040161159690614f57565b60405180910390fd5b8460006008826040516115b291906147aa565b90815260200160405180910390206003015411611604576040517f08c379a00000000000000000000000000000000000000000000000000000000081526004016115fb90614fc3565b60405180910390fd5b61160c612d27565b600160088760405161161e91906147aa565b908152602001604051809103902060070160006101000a81548160ff0219169083151502179055506116b260088760405161165991906147aa565b908152602001604051809103902060000160009054906101000a900473ffffffffffffffffffffffffffffffffffffffff1660088860405161169b91906147aa565b908152602001604051809103902060030154612d9e565b6008866040516116c291906147aa565b908152602001604051809103902060000160009054906101000a900473ffffffffffffffffffffffffffffffffffffffff1673ffffffffffffffffffffffffffffffffffffffff167ff4f5217559a8ed302a23ec28c00436945096614ef663afa666b1fb3748eca3b68760088960405161173c91906147aa565b90815260200160405180910390206003015460405161175c929190615055565b60405180910390a261176c612d94565b505050505050565b60008073ffffffffffffffffffffffffffffffffffffffff168273ffffffffffffffffffffffffffffffffffffffff16036117e75760006040517f89c62b640000000000000000000000000000000000000000000000000000000081526004016117de9190613e57565b60405180910390fd5b600360008373ffffffffffffffffffffffffffffffffffffffff1673ffffffffffffffffffffffffffffffffffffffff168152602001908152602001600020549050919050565b600a60003373ffffffffffffffffffffffffffffffffffffffff1673ffffffffffffffffffffffffffffffffffffffff16815260200190815260200160002060009054906101000a900460ff166118ba576040517f08c379a00000000000000000000000000000000000000000000000000000000081526004016118b190614c6e565b60405180910390fd5b80600c816040516118cb91906147aa565b908152602001604051809103902060009054906101000a900460ff16611926576040517f08c379a000000000000000000000000000000000000000000000000000000000815260040161191d9061480d565b60405180910390fd5b8160088160405161193791906147aa565b9081526020016040518091039020600501544210158015611978575060088160405161196391906147aa565b90815260200160405180910390206006015442105b6119b7576040517f08c379a00000000000000000000000000000000000000000000000000000000081526004016119ae9061510a565b60405180910390fd5b826008816040516119c891906147aa565b908152602001604051809103902060070160019054906101000a900460ff1615611a27576040517f08c379a0000000000000000000000000000000000000000000000000000000008152600401611a1e90614977565b60405180910390fd5b83600881604051611a3891906147aa565b908152602001604051809103902060020154341015611a8c576040517f08c379a0000000000000000000000000000000000000000000000000000000008152600401611a8390615176565b60405180910390fd5b600881604051611a9c91906147aa565b9081526020016040518091039020600301543411611aef576040517f08c379a0000000000000000000000000000000000000000000000000000000008152600401611ae6906151e2565b60405180910390fd5b611af7612d27565b600073ffffffffffffffffffffffffffffffffffffffff16600886604051611b1f91906147aa565b908152602001604051809103902060040160009054906101000a900473ffffffffffffffffffffffffffffffffffffffff1673ffffffffffffffffffffffffffffffffffffffff1614611c9f57611bd8600886604051611b7f91906147aa565b908152602001604051809103902060040160009054906101000a900473ffffffffffffffffffffffffffffffffffffffff16600887604051611bc191906147aa565b908152602001604051809103902060030154612d9e565b84604051611be691906147aa565b6040518091039020600886604051611bfe91906147aa565b908152602001604051809103902060040160009054906101000a900473ffffffffffffffffffffffffffffffffffffffff1673ffffffffffffffffffffffffffffffffffffffff167fe85d2acfae3a62ae073bcdc63a63e292029a0818ee4720bfc3d2e1e77732a8fd600888604051611c7791906147aa565b908152602001604051809103902060030154604051611c96919061524e565b60405180910390a35b611ca93034612d9e565b34600886604051611cba91906147aa565b90815260200160405180910390206003018190555033600886604051611ce091906147aa565b908152602001604051809103902060040160006101000a81548173ffffffffffffffffffffffffffffffffffffffff021916908373ffffffffffffffffffffffffffffffffffffffff160217905550600985604051611d3f91906147aa565b908152602001604051809103902060405180604001604052803373ffffffffffffffffffffffffffffffffffffffff16815260200134815250908060018154018082558091505060019003906000526020600020906002020160009091909190915060008201518160000160006101000a81548173ffffffffffffffffffffffffffffffffffffffff021916908373ffffffffffffffffffffffffffffffffffffffff1602179055506020820151816001015550503373ffffffffffffffffffffffffffffffffffffffff167f3e78737488991e42842c021094dfbd80a94e36d5192b59258e3fd78d5e171acf8634604051611e3c9291906152c8565b60405180910390a2611e4c612d94565b5050505050565b600c818051602081018201805184825260208301602085012081835280955050505050506000915054906101000a900460ff1681565b606060018054611e9890614706565b80601f0160208091040260200160405190810160405280929190818152602001828054611ec490614706565b8015611f115780601f10611ee657610100808354040283529160200191611f11565b820191906000526020600020905b815481529060010190602001808311611ef457829003601f168201915b5050505050905090565b6060600982604051611f2d91906147aa565b9081526020016040518091039020805480602002602001604051908101604052809291908181526020016000905b82821015611fed57838290600052602060002090600202016040518060400160405290816000820160009054906101000a900473ffffffffffffffffffffffffffffffffffffffff1673ffffffffffffffffffffffffffffffffffffffff1673ffffffffffffffffffffffffffffffffffffffff16815260200160018201548152505081526020019060010190611f5b565b505050509050919050565b61200a612003612af3565b8383612e4f565b5050565b80600c8160405161201f91906147aa565b908152602001604051809103902060009054906101000a900460ff1661207a576040517f08c379a00000000000000000000000000000000000000000000000000000000081526004016120719061480d565b60405180910390fd5b8160088160405161208b91906147aa565b9081526020016040518091039020600601544210156120df576040517f08c379a00000000000000000000000000000000000000000000000000000000081526004016120d690614eeb565b60405180910390fd5b826008816040516120f091906147aa565b908152602001604051809103902060040160009054906101000a900473ffffffffffffffffffffffffffffffffffffffff1673ffffffffffffffffffffffffffffffffffffffff163373ffffffffffffffffffffffffffffffffffffffff161461218f576040517f08c379a00000000000000000000000000000000000000000000000000000000081526004016121869061537d565b60405180910390fd5b836008816040516121a091906147aa565b908152602001604051809103902060070160019054906101000a900460ff16156121ff576040517f08c379a00000000000000000000000000000000000000000000000000000000081526004016121f690614977565b60405180910390fd5b612207612d27565b61223260088660405161221a91906147aa565b90815260200160405180910390206001015433612d6d565b3373ffffffffffffffffffffffffffffffffffffffff167fd072e7f730ac8744f5773cc6ae9e821a861151dd106ab50d60e200c4d1a318cf8660088860405161227b91906147aa565b90815260200160405180910390206001015460405161229b9291906153e9565b60405180910390a26122ab612d94565b5050505050565b80600c816040516122c391906147aa565b908152602001604051809103902060009054906101000a900460ff1661231e576040517f08c379a00000000000000000000000000000000000000000000000000000000081526004016123159061480d565b60405180910390fd5b8160088160405161232f91906147aa565b908152602001604051809103902060000160009054906101000a900473ffffffffffffffffffffffffffffffffffffffff1673ffffffffffffffffffffffffffffffffffffffff163373ffffffffffffffffffffffffffffffffffffffff16146123ce576040517f08c379a00000000000000000000000000000000000000000000000000000000081526004016123c59061489f565b60405180910390fd5b826008816040516123df91906147aa565b908152602001604051809103902060070160019054906101000a900460ff161561243e576040517f08c379a000000000000000000000000000000000000000000000000000000000815260040161243590614977565b60405180910390fd5b8360088160405161244f91906147aa565b90815260200160405180910390206005015442106124a2576040517f08c379a00000000000000000000000000000000000000000000000000000000081526004016124999061490b565b60405180910390fd5b6124aa612d27565b60016008866040516124bc91906147aa565b908152602001604051809103902060070160016101000a81548160ff02191690831515021790555061250f6008866040516124f791906147aa565b90815260200160405180910390206001015433612d6d565b7f493169321f4a65d9d8e5ed0441ed79be8931a3b68825aeaeea49cc40a12ed1aa8560405161253e9190615478565b60405180910390a161254e612d94565b5050505050565b6008818051602081018201805184825260208301602085012081835280955050505050506000915090508060000160009054906101000a900473ffffffffffffffffffffffffffffffffffffffff16908060010154908060020154908060030154908060040160009054906101000a900473ffffffffffffffffffffffffffffffffffffffff16908060050154908060060154908060070160009054906101000a900460ff16908060070160019054906101000a900460ff16905089565b61261e848484610932565b612632612629612af3565b85858585612fbe565b50505050565b606061264382612a2e565b50600060066000848152602001908152602001600020805461266490614706565b80601f016020809104026020016040519081016040528092919081815260200182805461269090614706565b80156126dd5780601f106126b2576101008083540402835291602001916126dd565b820191906000526020600020905b8154815290600101906020018083116126c057829003601f168201915b5050505050905060006126ee61316f565b90506000815103612703578192505050612746565b6000825111156127385780826040516020016127209291906154ad565b60405160208183030381529060405292505050612746565b61274184613186565b925050505b919050565b600b6020528060005260406000206000915054906101000a900460ff1681565b6000600560008473ffffffffffffffffffffffffffffffffffffffff1673ffffffffffffffffffffffffffffffffffffffff16815260200190815260200160002060008373ffffffffffffffffffffffffffffffffffffffff1673ffffffffffffffffffffffffffffffffffffffff16815260200190815260200160002060009054906101000a900460ff16905092915050565b612807613b4a565b60088260405161281791906147aa565b9081526020016040518091039020604051806101200160405290816000820160009054906101000a900473ffffffffffffffffffffffffffffffffffffffff1673ffffffffffffffffffffffffffffffffffffffff1673ffffffffffffffffffffffffffffffffffffffff1681526020016001820154815260200160028201548152602001600382015481526020016004820160009054906101000a900473ffffffffffffffffffffffffffffffffffffffff1673ffffffffffffffffffffffffffffffffffffffff1673ffffffffffffffffffffffffffffffffffffffff16815260200160058201548152602001600682015481526020016007820160009054906101000a900460ff161515151581526020016007820160019054906101000a900460ff1615151515815250509050919050565b60007f80ac58cd000000000000000000000000000000000000000000000000000000007bffffffffffffffffffffffffffffffffffffffffffffffffffffffff1916827bffffffffffffffffffffffffffffffffffffffffffffffffffffffff19161480612a1757507f5b5e139f000000000000000000000000000000000000000000000000000000007bffffffffffffffffffffffffffffffffffffffffffffffffffffffff1916827bffffffffffffffffffffffffffffffffffffffffffffffffffffffff1916145b80612a275750612a26826131ef565b5b9050919050565b600080612a3a83613259565b9050600073ffffffffffffffffffffffffffffffffffffffff168173ffffffffffffffffffffffffffffffffffffffff1603612aad57826040517f7e273289000000000000000000000000000000000000000000000000000000008152600401612aa49190614383565b60405180910390fd5b80915050919050565b60006004600083815260200190815260200160002060009054906101000a900473ffffffffffffffffffffffffffffffffffffffff169050919050565b600033905090565b612b088383836001613296565b505050565b600080612b1984613259565b9050600073ffffffffffffffffffffffffffffffffffffffff168373ffffffffffffffffffffffffffffffffffffffff1614612b5b57612b5a81848661345b565b5b600073ffffffffffffffffffffffffffffffffffffffff168173ffffffffffffffffffffffffffffffffffffffff1614612bec57612b9d600085600080613296565b6001600360008373ffffffffffffffffffffffffffffffffffffffff1673ffffffffffffffffffffffffffffffffffffffff168152602001908152602001600020600082825403925050819055505b600073ffffffffffffffffffffffffffffffffffffffff168573ffffffffffffffffffffffffffffffffffffffff1614612c6f576001600360008773ffffffffffffffffffffffffffffffffffffffff1673ffffffffffffffffffffffffffffffffffffffff168152602001908152602001600020600082825401925050819055505b846002600086815260200190815260200160002060006101000a81548173ffffffffffffffffffffffffffffffffffffffff021916908373ffffffffffffffffffffffffffffffffffffffff160217905550838573ffffffffffffffffffffffffffffffffffffffff168273ffffffffffffffffffffffffffffffffffffffff167fddf252ad1be2c89b69c2b068fc378daa952ba7f163c4a11628f55a4df523b3ef60405160405180910390a4809150509392505050565b600260075403612d63576040517f3ee5aeb500000000000000000000000000000000000000000000000000000000815260040160405180910390fd5b6002600781905550565b612d7830828461351f565b5050565b612d86308361353f565b612d90828261355d565b5050565b6001600781905550565b60008273ffffffffffffffffffffffffffffffffffffffff1682604051612dc490615502565b60006040518083038185875af1925050503d8060008114612e01576040519150601f19603f3d011682016040523d82523d6000602084013e612e06565b606091505b5050905080612e4a576040517f08c379a0000000000000000000000000000000000000000000000000000000008152600401612e4190615563565b60405180910390fd5b505050565b600073ffffffffffffffffffffffffffffffffffffffff168273ffffffffffffffffffffffffffffffffffffffff1603612ec057816040517f5b08ba18000000000000000000000000000000000000000000000000000000008152600401612eb79190613e57565b60405180910390fd5b80600560008573ffffffffffffffffffffffffffffffffffffffff1673ffffffffffffffffffffffffffffffffffffffff16815260200190815260200160002060008473ffffffffffffffffffffffffffffffffffffffff1673ffffffffffffffffffffffffffffffffffffffff16815260200190815260200160002060006101000a81548160ff0219169083151502179055508173ffffffffffffffffffffffffffffffffffffffff168373ffffffffffffffffffffffffffffffffffffffff167f17307eab39ab6107e8899845ad3d59bd9653f200f220920489ca2b5937696c3183604051612fb19190613cf7565b60405180910390a3505050565b60008373ffffffffffffffffffffffffffffffffffffffff163b1115613168578273ffffffffffffffffffffffffffffffffffffffff1663150b7a02868685856040518563ffffffff1660e01b815260040161301d94939291906155d8565b6020604051808303816000875af192505050801561305957506040513d601f19601f820116820180604052508101906130569190615639565b60015b6130dd573d8060008114613089576040519150601f19603f3d011682016040523d82523d6000602084013e61308e565b606091505b5060008151036130d557836040517f64a0ae920000000000000000000000000000000000000000000000000000000081526004016130cc9190613e57565b60405180910390fd5b805181602001fd5b63150b7a0260e01b7bffffffffffffffffffffffffffffffffffffffffffffffffffffffff1916817bffffffffffffffffffffffffffffffffffffffffffffffffffffffff19161461316657836040517f64a0ae9200000000000000000000000000000000000000000000000000000000815260040161315d9190613e57565b60405180910390fd5b505b5050505050565b606060405180602001604052806000815250905090565b606061319182612a2e565b50600061319c61316f565b905060008151116131bc57604051806020016040528060008152506131e7565b806131c6846135b9565b6040516020016131d79291906154ad565b6040516020818303038152906040525b915050919050565b60007f01ffc9a7000000000000000000000000000000000000000000000000000000007bffffffffffffffffffffffffffffffffffffffffffffffffffffffff1916827bffffffffffffffffffffffffffffffffffffffffffffffffffffffff1916149050919050565b60006002600083815260200190815260200160002060009054906101000a900473ffffffffffffffffffffffffffffffffffffffff169050919050565b80806132cf5750600073ffffffffffffffffffffffffffffffffffffffff168273ffffffffffffffffffffffffffffffffffffffff1614155b156134035760006132df84612a2e565b9050600073ffffffffffffffffffffffffffffffffffffffff168373ffffffffffffffffffffffffffffffffffffffff161415801561334a57508273ffffffffffffffffffffffffffffffffffffffff168173ffffffffffffffffffffffffffffffffffffffff1614155b801561335d575061335b818461276b565b155b1561339f57826040517fa9fbf51f0000000000000000000000000000000000000000000000000000000081526004016133969190613e57565b60405180910390fd5b811561340157838573ffffffffffffffffffffffffffffffffffffffff168273ffffffffffffffffffffffffffffffffffffffff167f8c5be1e5ebec7d5bd14f71427d1e84f3dd0314c0f7b2291e5b200ac8c7c3b92560405160405180910390a45b505b836004600085815260200190815260200160002060006101000a81548173ffffffffffffffffffffffffffffffffffffffff021916908373ffffffffffffffffffffffffffffffffffffffff16021790555050505050565b613466838383613687565b61351a57600073ffffffffffffffffffffffffffffffffffffffff168373ffffffffffffffffffffffffffffffffffffffff16036134db57806040517f7e2732890000000000000000000000000000000000000000000000000000000081526004016134d29190614383565b60405180910390fd5b81816040517f177e802f000000000000000000000000000000000000000000000000000000008152600401613511929190614311565b60405180910390fd5b505050565b61353a83838360405180602001604052806000815250613748565b505050565b61355982826040518060200160405280600081525061376d565b5050565b8060066000848152602001908152602001600020908161357d9190615812565b507ff8e1a15aba9398e019f0b49df1a4fde98ee17ae345cb5f6b5e2c27f5033e8ce7826040516135ad9190614383565b60405180910390a15050565b6060600060016135c884613791565b01905060008167ffffffffffffffff8111156135e7576135e6613f15565b5b6040519080825280601f01601f1916602001820160405280156136195781602001600182028036833780820191505090505b509050600082602001820190505b60011561367c578080600190039150507f3031323334353637383961626364656600000000000000000000000000000000600a86061a8153600a85816136705761366f6158e4565b5b04945060008503613627575b819350505050919050565b60008073ffffffffffffffffffffffffffffffffffffffff168373ffffffffffffffffffffffffffffffffffffffff161415801561373f57508273ffffffffffffffffffffffffffffffffffffffff168473ffffffffffffffffffffffffffffffffffffffff16148061370057506136ff848461276b565b5b8061373e57508273ffffffffffffffffffffffffffffffffffffffff1661372683612ab6565b73ffffffffffffffffffffffffffffffffffffffff16145b5b90509392505050565b6137538484846138e4565b61376761375e612af3565b85858585612fbe565b50505050565b6137778383613a51565b61378c613782612af3565b6000858585612fbe565b505050565b600080600090507a184f03e93ff9f4daa797ed6e38ed64bf6a1f01000000000000000083106137ef577a184f03e93ff9f4daa797ed6e38ed64bf6a1f01000000000000000083816137e5576137e46158e4565b5b0492506040810190505b6d04ee2d6d415b85acef8100000000831061382c576d04ee2d6d415b85acef81000000008381613822576138216158e4565b5b0492506020810190505b662386f26fc10000831061385b57662386f26fc100008381613851576138506158e4565b5b0492506010810190505b6305f5e1008310613884576305f5e100838161387a576138796158e4565b5b0492506008810190505b61271083106138a957612710838161389f5761389e6158e4565b5b0492506004810190505b606483106138cc57606483816138c2576138c16158e4565b5b0492506002810190505b600a83106138db576001810190505b80915050919050565b600073ffffffffffffffffffffffffffffffffffffffff168273ffffffffffffffffffffffffffffffffffffffff16036139565760006040517f64a0ae9200000000000000000000000000000000000000000000000000000000815260040161394d9190613e57565b60405180910390fd5b600061396483836000612b0d565b9050600073ffffffffffffffffffffffffffffffffffffffff168173ffffffffffffffffffffffffffffffffffffffff16036139d757816040517f7e2732890000000000000000000000000000000000000000000000000000000081526004016139ce9190614383565b60405180910390fd5b8373ffffffffffffffffffffffffffffffffffffffff168173ffffffffffffffffffffffffffffffffffffffff1614613a4b578382826040517f64283d7b000000000000000000000000000000000000000000000000000000008152600401613a4293929190614737565b60405180910390fd5b50505050565b600073ffffffffffffffffffffffffffffffffffffffff168273ffffffffffffffffffffffffffffffffffffffff1603613ac35760006040517f64a0ae92000000000000000000000000000000000000000000000000000000008152600401613aba9190613e57565b60405180910390fd5b6000613ad183836000612b0d565b9050600073ffffffffffffffffffffffffffffffffffffffff168173ffffffffffffffffffffffffffffffffffffffff1614613b455760006040517f73c6ac6e000000000000000000000000000000000000000000000000000000008152600401613b3c9190613e57565b60405180910390fd5b505050565b604051806101200160405280600073ffffffffffffffffffffffffffffffffffffffff168152602001600081526020016000815260200160008152602001600073ffffffffffffffffffffffffffffffffffffffff16815260200160008152602001600081526020016000151581526020016000151581525090565b600082825260208201905092915050565b7f46756e6374696f6e20646f6573206e6f74206578697374000000000000000000600082015250565b6000613c0d601783613bc6565b9150613c1882613bd7565b602082019050919050565b60006020820190508181036000830152613c3c81613c00565b9050919050565b6000604051905090565b600080fd5b600080fd5b60007fffffffff0000000000000000000000000000000000000000000000000000000082169050919050565b613c8c81613c57565b8114613c9757600080fd5b50565b600081359050613ca981613c83565b92915050565b600060208284031215613cc557613cc4613c4d565b5b6000613cd384828501613c9a565b91505092915050565b60008115159050919050565b613cf181613cdc565b82525050565b6000602082019050613d0c6000830184613ce8565b92915050565b600081519050919050565b60005b83811015613d3b578082015181840152602081019050613d20565b60008484015250505050565b6000601f19601f8301169050919050565b6000613d6382613d12565b613d6d8185613bc6565b9350613d7d818560208601613d1d565b613d8681613d47565b840191505092915050565b60006020820190508181036000830152613dab8184613d58565b905092915050565b6000819050919050565b613dc681613db3565b8114613dd157600080fd5b50565b600081359050613de381613dbd565b92915050565b600060208284031215613dff57613dfe613c4d565b5b6000613e0d84828501613dd4565b91505092915050565b600073ffffffffffffffffffffffffffffffffffffffff82169050919050565b6000613e4182613e16565b9050919050565b613e5181613e36565b82525050565b6000602082019050613e6c6000830184613e48565b92915050565b613e7b81613e36565b8114613e8657600080fd5b50565b600081359050613e9881613e72565b92915050565b60008060408385031215613eb557613eb4613c4d565b5b6000613ec385828601613e89565b9250506020613ed485828601613dd4565b9150509250929050565b600060208284031215613ef457613ef3613c4d565b5b6000613f0284828501613e89565b91505092915050565b600080fd5b600080fd5b7f4e487b7100000000000000000000000000000000000000000000000000000000600052604160045260246000fd5b613f4d82613d47565b810181811067ffffffffffffffff82111715613f6c57613f6b613f15565b5b80604052505050565b6000613f7f613c43565b9050613f8b8282613f44565b919050565b600067ffffffffffffffff821115613fab57613faa613f15565b5b613fb482613d47565b9050602081019050919050565b82818337600083830152505050565b6000613fe3613fde84613f90565b613f75565b905082815260208101848484011115613fff57613ffe613f10565b5b61400a848285613fc1565b509392505050565b600082601f83011261402757614026613f0b565b5b8135614037848260208601613fd0565b91505092915050565b6000806000806080858703121561405a57614059613c4d565b5b600061406887828801613e89565b945050602061407987828801613e89565b935050604061408a87828801613dd4565b925050606085013567ffffffffffffffff8111156140ab576140aa613c52565b5b6140b787828801614012565b91505092959194509250565b6140cc81613c57565b82525050565b60006020820190506140e760008301846140c3565b92915050565b60008060006060848603121561410657614105613c4d565b5b600061411486828701613e89565b935050602061412586828701613e89565b925050604061413686828701613dd4565b9150509250925092565b600067ffffffffffffffff82111561415b5761415a613f15565b5b61416482613d47565b9050602081019050919050565b600061418461417f84614140565b613f75565b9050828152602081018484840111156141a05761419f613f10565b5b6141ab848285613fc1565b509392505050565b600082601f8301126141c8576141c7613f0b565b5b81356141d8848260208601614171565b91505092915050565b60008060008060008060c087890312156141fe576141fd613c4d565b5b600087013567ffffffffffffffff81111561421c5761421b613c52565b5b61422889828a016141b3565b965050602061423989828a01613dd4565b955050604061424a89828a01613dd4565b945050606061425b89828a01613dd4565b935050608061426c89828a01613dd4565b92505060a087013567ffffffffffffffff81111561428d5761428c613c52565b5b61429989828a016141b3565b9150509295509295509295565b600080604083850312156142bd576142bc613c4d565b5b600083013567ffffffffffffffff8111156142db576142da613c52565b5b6142e7858286016141b3565b92505060206142f885828601613dd4565b9150509250929050565b61430b81613db3565b82525050565b60006040820190506143266000830185613e48565b6143336020830184614302565b9392505050565b6000602082840312156143505761434f613c4d565b5b600082013567ffffffffffffffff81111561436e5761436d613c52565b5b61437a848285016141b3565b91505092915050565b60006020820190506143986000830184614302565b92915050565b600081519050919050565b600082825260208201905092915050565b6000819050602082019050919050565b6143d381613e36565b82525050565b6143e281613db3565b82525050565b6040820160008201516143fe60008501826143ca565b50602082015161441160208501826143d9565b50505050565b600061442383836143e8565b60408301905092915050565b6000602082019050919050565b60006144478261439e565b61445181856143a9565b935061445c836143ba565b8060005b8381101561448d5781516144748882614417565b975061447f8361442f565b925050600181019050614460565b5085935050505092915050565b600060208201905081810360008301526144b4818461443c565b905092915050565b6144c581613cdc565b81146144d057600080fd5b50565b6000813590506144e2816144bc565b92915050565b600080604083850312156144ff576144fe613c4d565b5b600061450d85828601613e89565b925050602061451e858286016144d3565b9150509250929050565b60006101208201905061453e600083018c613e48565b61454b602083018b614302565b614558604083018a614302565b6145656060830189614302565b6145726080830188613e48565b61457f60a0830187614302565b61458c60c0830186614302565b61459960e0830185613ce8565b6145a7610100830184613ce8565b9a9950505050505050505050565b600080604083850312156145cc576145cb613c4d565b5b60006145da85828601613e89565b92505060206145eb85828601613e89565b9150509250929050565b6145fe81613cdc565b82525050565b6101208201600082015161461b60008501826143ca565b50602082015161462e60208501826143d9565b50604082015161464160408501826143d9565b50606082015161465460608501826143d9565b50608082015161466760808501826143ca565b5060a082015161467a60a08501826143d9565b5060c082015161468d60c08501826143d9565b5060e08201516146a060e08501826145f5565b506101008201516146b56101008501826145f5565b50505050565b6000610120820190506146d16000830184614604565b92915050565b7f4e487b7100000000000000000000000000000000000000000000000000000000600052602260045260246000fd5b6000600282049050600182168061471e57607f821691505b602082108103614731576147306146d7565b5b50919050565b600060608201905061474c6000830186613e48565b6147596020830185614302565b6147666040830184613e48565b949350505050565b600081905092915050565b600061478482613d12565b61478e818561476e565b935061479e818560208601613d1d565b80840191505092915050565b60006147b68284614779565b915081905092915050565b7f41756374696f6e20646f6573206e6f742065786973742e000000000000000000600082015250565b60006147f7601783613bc6565b9150614802826147c1565b602082019050919050565b60006020820190508181036000830152614826816147ea565b9050919050565b7f4f6e6c792061756374696f6e2063726561746f722063616e2063616c6c20746860008201527f69732e0000000000000000000000000000000000000000000000000000000000602082015250565b6000614889602383613bc6565b91506148948261482d565b604082019050919050565b600060208201905081810360008301526148b88161487c565b9050919050565b7f41756374696f6e20616c726561647920737461727465642e0000000000000000600082015250565b60006148f5601883613bc6565b9150614900826148bf565b602082019050919050565b60006020820190508181036000830152614924816148e8565b9050919050565b7f41756374696f6e20686173206265656e2063616e63656c656400000000000000600082015250565b6000614961601983613bc6565b915061496c8261492b565b602082019050919050565b6000602082019050818103600083015261499081614954565b9050919050565b7f4d696e696d756d20626964206d7573742062652067726561746572207468616e60008201527f20302e0000000000000000000000000000000000000000000000000000000000602082015250565b60006149f3602383613bc6565b91506149fe82614997565b604082019050919050565b60006020820190508181036000830152614a22816149e6565b9050919050565b7f53746172742074696d65206d757374206265206265666f726520646561646c6960008201527f6e652e0000000000000000000000000000000000000000000000000000000000602082015250565b6000614a85602383613bc6565b9150614a9082614a29565b604082019050919050565b60006020820190508181036000830152614ab481614a78565b9050919050565b7f41756374696f6e207375636365737366756c6c7920757064617465642e000000600082015250565b6000614af1601d83613bc6565b9150614afc82614abb565b602082019050919050565b60006040820190508181036000830152614b218184613d58565b90508181036020830152614b3481614ae4565b905092915050565b7f416c726561647920726567697374657265642e00000000000000000000000000600082015250565b6000614b72601383613bc6565b9150614b7d82614b3c565b602082019050919050565b60006020820190508181036000830152614ba181614b65565b9050919050565b7f557365722072656769737465726564207375636365737366756c6c7900000000600082015250565b6000614bde601c83613bc6565b9150614be982614ba8565b602082019050919050565b6000604082019050614c096000830184613e48565b8181036020830152614c1a81614bd1565b905092915050565b7f596f75206d7573742062652061207265676973746572656420757365722e0000600082015250565b6000614c58601e83613bc6565b9150614c6382614c22565b602082019050919050565b60006020820190508181036000830152614c8781614c4b565b9050919050565b7f546f6b656e20494420616c726561647920726567697374657265642100000000600082015250565b6000614cc4601c83613bc6565b9150614ccf82614c8e565b602082019050919050565b60006020820190508181036000830152614cf381614cb7565b9050919050565b7f53746172742074696d65206d75737420626520696e207468652066757475726560008201527f2e00000000000000000000000000000000000000000000000000000000000000602082015250565b6000614d56602183613bc6565b9150614d6182614cfa565b604082019050919050565b60006020820190508181036000830152614d8581614d49565b9050919050565b7f456e642074696d65206d7573742062652061667465722073746172742074696d60008201527f652e000000000000000000000000000000000000000000000000000000000000602082015250565b6000614de8602283613bc6565b9150614df382614d8c565b604082019050919050565b60006020820190508181036000830152614e1781614ddb565b9050919050565b7f41756374696f6e207375636365737366756c6c7920637265617465642e000000600082015250565b6000614e54601d83613bc6565b9150614e5f82614e1e565b602082019050919050565b60006040820190508181036000830152614e848184613d58565b90508181036020830152614e9781614e47565b905092915050565b7f41756374696f6e206973207374696c6c206163746976652e0000000000000000600082015250565b6000614ed5601883613bc6565b9150614ee082614e9f565b602082019050919050565b60006020820190508181036000830152614f0481614ec8565b9050919050565b7f416c726561647920636c61696d65642e00000000000000000000000000000000600082015250565b6000614f41601083613bc6565b9150614f4c82614f0b565b602082019050919050565b60006020820190508181036000830152614f7081614f34565b9050919050565b7f4e6f20626964732e000000000000000000000000000000000000000000000000600082015250565b6000614fad600883613bc6565b9150614fb882614f77565b602082019050919050565b60006020820190508181036000830152614fdc81614fa0565b9050919050565b7f46756e6473207472616e7366657272656420746f2061756374696f6e2063726560008201527f61746f722e000000000000000000000000000000000000000000000000000000602082015250565b600061503f602583613bc6565b915061504a82614fe3565b604082019050919050565b6000606082019050818103600083015261506f8185613d58565b905061507e6020830184614302565b818103604083015261508f81615032565b90509392505050565b7f41756374696f6e206973206e6f7420616374697665206f722068617320616c7260008201527f6561647920656e64656400000000000000000000000000000000000000000000602082015250565b60006150f4602a83613bc6565b91506150ff82615098565b604082019050919050565b60006020820190508181036000830152615123816150e7565b9050919050565b7f4269642062656c6f77206d696e696d756d2e0000000000000000000000000000600082015250565b6000615160601283613bc6565b915061516b8261512a565b602082019050919050565b6000602082019050818103600083015261518f81615153565b9050919050565b7f426964206e6f74206869676820656e6f7567682e000000000000000000000000600082015250565b60006151cc601483613bc6565b91506151d782615196565b602082019050919050565b600060208201905081810360008301526151fb816151bf565b9050919050565b7f50726576696f7573206465706f7369742072657475726e65642e000000000000600082015250565b6000615238601a83613bc6565b915061524382615202565b602082019050919050565b60006040820190506152636000830184614302565b81810360208301526152748161522b565b905092915050565b7f4e65772062696420706c616365642e0000000000000000000000000000000000600082015250565b60006152b2600f83613bc6565b91506152bd8261527c565b602082019050919050565b600060608201905081810360008301526152e28185613d58565b90506152f16020830184614302565b8181036040830152615302816152a5565b90509392505050565b7f43616c6c65722069736e2774206120746865206869676865737420626964646560008201527f7200000000000000000000000000000000000000000000000000000000000000602082015250565b6000615367602183613bc6565b91506153728261530b565b604082019050919050565b600060208201905081810360008301526153968161535a565b9050919050565b7f4e465420636c61696d6564207375636365737366756c6c792e00000000000000600082015250565b60006153d3601983613bc6565b91506153de8261539d565b602082019050919050565b600060608201905081810360008301526154038185613d58565b90506154126020830184614302565b8181036040830152615423816153c6565b90509392505050565b7f41756374696f6e2063616e63656c65642e000000000000000000000000000000600082015250565b6000615462601183613bc6565b915061546d8261542c565b602082019050919050565b600060408201905081810360008301526154928184613d58565b905081810360208301526154a581615455565b905092915050565b60006154b98285614779565b91506154c58284614779565b91508190509392505050565b600081905092915050565b50565b60006154ec6000836154d1565b91506154f7826154dc565b600082019050919050565b600061550d826154df565b9150819050919050565b7f4661696c656420746f207472616e736665722100000000000000000000000000600082015250565b600061554d601383613bc6565b915061555882615517565b602082019050919050565b6000602082019050818103600083015261557c81615540565b9050919050565b600081519050919050565b600082825260208201905092915050565b60006155aa82615583565b6155b4818561558e565b93506155c4818560208601613d1d565b6155cd81613d47565b840191505092915050565b60006080820190506155ed6000830187613e48565b6155fa6020830186613e48565b6156076040830185614302565b8181036060830152615619818461559f565b905095945050505050565b60008151905061563381613c83565b92915050565b60006020828403121561564f5761564e613c4d565b5b600061565d84828501615624565b91505092915050565b60008190508160005260206000209050919050565b60006020601f8301049050919050565b600082821b905092915050565b6000600883026156c87fffffffffffffffffffffffffffffffffffffffffffffffffffffffffffffffff8261568b565b6156d2868361568b565b95508019841693508086168417925050509392505050565b6000819050919050565b600061570f61570a61570584613db3565b6156ea565b613db3565b9050919050565b6000819050919050565b615729836156f4565b61573d61573582615716565b848454615698565b825550505050565b600090565b615752615745565b61575d818484615720565b505050565b5b818110156157815761577660008261574a565b600181019050615763565b5050565b601f8211156157c65761579781615666565b6157a08461567b565b810160208510156157af578190505b6157c36157bb8561567b565b830182615762565b50505b505050565b600082821c905092915050565b60006157e9600019846008026157cb565b1980831691505092915050565b600061580283836157d8565b9150826002028217905092915050565b61581b82613d12565b67ffffffffffffffff81111561583457615833613f15565b5b61583e8254614706565b615849828285615785565b600060209050601f83116001811461587c576000841561586a578287015190505b61587485826157f6565b8655506158dc565b601f19841661588a86615666565b60005b828110156158b25784890151825560018201915060208501945060208101905061588d565b868310156158cf57848901516158cb601f8916826157d8565b8355505b6001600288020188555050505b505050505050565b7f4e487b7100000000000000000000000000000000000000000000000000000000600052601260045260246000fdfea26469706673582212202e8a8b3e6b6e5d82fa8ebae888dc7b6ec45f73b9deb54041d01095a0e9ea185a64736f6c634300081c0033",
  "linkReferences": {},
  "deployedLinkReferences": {}
}